:020000040800F2
:10000000E0040020010100086D140008F912000846
:10001000691400086D010008611800080000000064
:10002000000000000000000000000000D9150008DA
:100030007101000800000000E114000831160008FA
:100040001B0100081B0100081B0100081B01000820
:100050001B0100081B0100081B0100081B01000810
:100060001B0100081B0100081B0100081B01000800
:100070001B0100081B0100081B0100081B010008F0
:100080001B0100081B0100081B0100081B010008E0
:100090001B0100081B0100081B0100081B010008D0
:1000A0001B0100081B0100081B0100081B010008C0
:1000B0001B0100081B0100081B0100081B010008B0
:1000C0001B0100081B0100081B0100081B010008A0
:1000D0001B0100081B0100081B0100081B01000890
:1000E0001B0100081B0100081B010008DFF80CD0F1
:1000F00000F02AF800480047E5190008E004002055
:100100000648804706480047FEE7FEE7FEE7FEE7B1
:10011000FEE7FEE7FEE7FEE7FEE7FEE7F51600086E
:10012000ED000008D2B201E000F8012B491EFBD21D
:1001300070470022F6E710B513460A4604461946F2
:10014000FFF7F0FF204610BD064C074D06E0E068C3
:1001500040F0010394E8070098471034AC42F6D30E
:10016000FFF7C8FF6C1B00088C1B0008FFE7FEE7C9
:100170007047000081B0009040F20000C2F2000021
:1001800000684DF68361C4F21B31A0FB0101890CAC
:100190004CF6CD42CCF6CC42A1FB02129208009B59
:1001A0005A430092FFE70098411E0091002801D0B9
:1001B000FFE7F8E701B0704781B0009040F200001F
:1001C000C2F2000000684CF66B21C6F65F31A0FB5E
:1001D0000101890D009A51430091FFE70098411EEB
:1001E0000091002801D0FFE7F8E701B07047000058
:1001F0007047000080B584B0039000F0FFF90290D2
:100200000398019001980130002809D0FFE740F2DF
:100210000400C2F200000078019908440190FFE751
:10022000FFE700F0EBF90299401A0199884201D2E8
:10023000FFE7F6E704B080BD90B00F900E9100206C
:100240000D900990FFE70E9800680D99C8400028AE
:1002500000F08781FFE70D98012101FA00F00C9072
:100260000E9800680C9908400B900B980C998842E6
:1002700040F07381FFE70E9840680028059051D048
:10028000FFE7059801283AD0FFE7059802283FD0FC
:10029000FFE70598032860D0FFE70598112832D0C2
:1002A000FFE70598122838D0FFE70020C1F21100BF
:1002B0000599814236D0FFE70020C1F2120005996E
:1002C00081422FD0FFE70020C1F221000599814231
:1002D00028D0FFE70020C1F222000599814221D0F9
:1002E000FFE70020C1F23100059981421AD0FFE7F3
:1002F0000020C1F232000599814213D030E00E98FF
:10030000C06809902DE00E98C0680430099028E07C
:100310000E98C0680830099023E00E98C0680C3031
:1003200009901EE00E988068002803D1FFE70420A2
:10033000099011E00E988068012806D1FFE7082097
:1003400009900C980F99086105E0082009900C9815
:100350000F994861FFE7FFE703E00020099000E004
:10036000FFE70B98FF2803D8FFE70F98049003E0FE
:100370000F9804300490FFE7049808900B98FF282A
:1003800004D8FFE70D988000039006E00D986FF009
:100390001F0101EB80000390FFE703980790089886
:1003A000006807990F228A409043099A02FA01F1E6
:1003B0000843089908600E98C079C006002840F1EB
:1003C000CB80FFE7FFE741F21800C4F202000168AA
:1003D00041F001010160006800F0010006900698FC
:1003E000FFE70D9820F003000821C4F201014058F6
:1003F0000A900D9800F0030080000F2101FA00F030
:100400000A9921EA00000A900F9840F60001C4F210
:100410000101884203D1FFE70020029026E00F98F7
:1004200040F60041C4F20101884203D1FFE70120F8
:10043000019018E00F9841F20001C4F201018842D6
:1004400003D1FFE7022000900AE00F9841F200413B
:10045000C4F201010422884208BF03220092FFE790
:1004600000980190FFE701980290FFE702980D992C
:1004700001F00301890088400A9908430A900A980C
:100480000D9921F003010822C4F2010288500E9850
:100490008079C007002809D0FFE70B9840F200419F
:1004A000C4F201010A681043086009E00B9840F2A9
:1004B0000041C4F201010A6822EA00000860FFE777
:1004C0000E9880798007002809D5FFE70B9840F245
:1004D0000441C4F201010A681043086009E00B9866
:1004E00040F20441C4F201010A6822EA00000860F7
:1004F000FFE70E988079C006002809D5FFE70B9822
:1005000040F20841C4F201010A681043086009E0A2
:100510000B9840F20841C4F201010A6822EA000087
:100520000860FFE70E9880798006002809D5FFE76C
:100530000B9840F20C41C4F201010A6810430860B4
:1005400009E00B9840F20C41C4F201010A6822EA6A
:1005500000000860FFE7FFE7FFE70D9801300D900E
:1005600071E610B07047000082B00A460190ADF805
:10057000021001988068BDF80210084204D0FFE71D
:1005800001208DF8010003E000208DF80100FFE755
:100590009DF8010002B0704782B00A460190ADF8A4
:1005A00002100198C068BDF80210084205D0FFE7AC
:1005B000BDF802000199486104E0BDF8020001990C
:1005C0000861FFE702B0704782B013468C46019085
:1005D000ADF802108DF801209DF80100002805D02B
:1005E000FFE7BDF802000199086105E0BDF80200CF
:1005F000000401990861FFE702B0704740F2D8009B
:10060000C2F200000068704740F20400C2F200002D
:10061000007840F2D801C2F200010A681044086074
:100620007047000080B582B042F20000C4F20200C0
:10063000016841F010010160032000F0A3F80020E0
:10064000019000F007F8009000F03EF8019802B029
:1006500080BD000080B582B0009040F20000C2F280
:100660000000006840F20401C2F2000109784FF472
:100670007A72B2FBF1F1B0FBF1F000F09BFD0028C3
:1006800004D0FFE701208DF8070018E000980F283C
:100690000DD8FFE700994FF0FF30002200F052F82C
:1006A000009840F20801C2F20001086003E0012056
:1006B0008DF8070003E000208DF80700FFE79DF8A4
:1006C000070002B080BD000083B0FFE741F21800D0
:1006D000C4F20200016841F001010160006800F00D
:1006E000010002900298FFE7FFE741F21C00C4F20C
:1006F0000200016841F080510160006800F0805004
:1007000001900198FFE7FFE70420C4F201000168AF
:100710000091009921F0E0610091009941F0007191
:10072000009100990160FFE703B0704780B582B087
:1007300001468DF807009DF90700009101F092F83D
:1007400002B080BD80B588B003468DF81F000691C9
:10075000059200200490039301F09EF804909DF907
:100760001F000499069A059B0290084611461A46F6
:1007700000F07EFE029901900846019901F094F87C
:1007800008B080BD80B582B00190019801F0AEF84C
:1007900002B080BD80B584B002900191029800281B
:1007A00004D1FFE701208DF80F001BE1019842F210
:1007B0000001C4F20201096801F00701884216D95C
:1007C000FFE742F20000C4F20200016821F00701D5
:1007D000019A11430160006800F007000199884206
:1007E00004D0FFE701208DF80F00FBE0FFE702983F
:1007F0000078800700282AD5FFE702980078400794
:10080000002809D5FFE741F20400C4F202000168A4
:1008100041F4E0610160FFE70298007800070028DA
:1008200009D5FFE741F20400C4F20200016841F477
:1008300060510160FFE741F20400C4F20200016868
:1008400021F0F001029A926811430160FFE70298DB
:100850000078C007002860D0FFE7029840680128B0
:100860000ED1FFE741F20000C4F2020000688003ED
:10087000002804D4FFE701208DF80F00B2E021E04A
:100880000298406802280ED1FFE741F20000C4F24E
:10089000020000688001002804D4FFE701208DF8E1
:1008A0000F009FE00DE041F20000C4F2020000687A
:1008B0008007002804D4FFE701208DF80F0091E0A5
:1008C000FFE7FFE741F20400C4F20200016821F0F3
:1008D0000301029A526811430160FFF78FFE0090F6
:1008E000FFE741F20400C4F20200006800F00C00CF
:1008F00002994968B0EB810F0ED0FFE7FFF77EFE4B
:100900000099401A41F28931884204D3FFE703205D
:100910008DF80F0066E0E4E7FFE7019842F200017E
:10092000C4F20201096801F00701884216D2FFE70C
:1009300042F20000C4F20200016821F00701019AAE
:1009400011430160006800F007000199884204D05B
:10095000FFE701208DF80F0044E0FFE702980078E0
:10096000400700280CD5FFE741F20400C4F2020062
:10097000016821F4E061029AD26811430160FFE747
:1009800002980078000700280DD5FFE741F2040027
:10099000C4F20200016821F46051029A126941EA2E
:1009A000C2010160FFE700F04BF841F20401C4F21C
:1009B00002010968C9B2090941F65232C0F60002C3
:1009C000515CC84040F20001C2F20001086040F2F0
:1009D0000800C2F200000068FFF73CFE00218DF81D
:1009E0000F10FFE79DF80F0004B080BD40F200003B
:1009F000C2F200000068704780B5FFF7F7FF41F2D0
:100A00000401C4F202010968C1F3022141F6623215
:100A1000C0F60002515CC84080BD000080B5FFF701
:100A2000E5FF41F20401C4F202010968C1F3C221E9
:100A300041F66232C0F60002515CC84080BD000041
:100A40008BB040F60E70C1F210000A9040F60A30EA
:100A5000C0F60C50099040F20670C0F608100890DD
:100A600040F20230C0F20450079040F20120ADF88D
:100A70001A0000200590049003900290019041F22A
:100A80000400C4F2020000680590059800F00C0014
:100A90000146002800913DD0FFE70098042804D0CB
:100AA000FFE70098082806D035E041F20020C0F2A8
:100AB0007A00019035E00598C0F3834007A9085CEF
:100AC00002909DF81600C007002818D0FFE741F2F9
:100AD0000400C4F20200006800F400300DF11A01B5
:100AE00041EA504000780490029841F20021C0F29F
:100AF0007A0148430499B0FBF1F0039007E00298B3
:100B000040F60011C0F23D0148430390FFE703980F
:100B1000019006E0FFE741F20020C0F27A00019068
:100B2000FFE701980BB0704780B586B00490049839
:100B3000002804D1FFE701208DF8170035E3049861
:100B40000078C007002800F0B180FFE741F2040000
:100B5000C4F20200006800F00C00042813D0FFE784
:100B600041F20400C4F20200006800F00C00082802
:100B70001CD1FFE741F20400C4F202000068C00388
:100B8000002813D5FFE741F20000C4F2020000681C
:100B90008003002809D5FFE704984068002804D1A5
:100BA000FFE701208DF81700FFE27EE0FFE70498E1
:100BB0004068B0F5803F09D1FFE741F20000C4F280
:100BC0000200016841F48031016033E0049840681C
:100BD00000280DD1FFE741F20000C4F202000168D5
:100BE00021F480310160016821F48021016020E05E
:100BF00004984068B0F5A02F0DD1FFE741F2000046
:100C0000C4F20200016841F480210160016841F4EE
:100C1000803101600CE041F20000C4F20200016882
:100C200021F480310160016821F480210160FFE737
:100C3000FFE7FFE7FFE70498406800281AD0FFE7C6
:100C4000FFF7DCFC0390FFE741F20000C4F2020072
:100C50000068800300280CD4FFE7FFF7CFFC03995E
:100C6000401A652804D3FFE703208DF817009CE2A3
:100C7000EAE719E0FFF7C2FC0390FFE741F200004A
:100C8000C4F202000068800300280CD5FFE7FFF7DC
:100C9000B5FC0399401A652804D3FFE703208DF8BB
:100CA000170082E2EAE7FFE7FFE7FFE70498007832
:100CB0008007002840F18E80FFE741F20400C4F273
:100CC0000200006810F00C0F13D0FFE741F204009F
:100CD000C4F20200006800F00C00082829D1FFE7E8
:100CE00041F20400C4F202000068C003002820D4CE
:100CF000FFE741F20000C4F202000068800700280C
:100D000009D5FFE704980069012804D0FFE7012016
:100D10008DF8170049E241F20000C4F202000168B8
:100D200021F0F801049A526941EAC2010160FFE72B
:100D30004FE00498006900282BD0FFE70020C4F2A0
:100D4000422001210160FFF759FC0390FFE741F2C7
:100D50000000C4F202000068800700280CD4FFE7FE
:100D6000FFF74CFC0399401A032804D3FFE7032044
:100D70008DF8170019E2EAE741F20000C4F2020020
:100D8000016821F0F801049A526941EAC201016048
:100D90001EE00020C4F2422000210160FFF72EFC7B
:100DA0000390FFE741F20000C4F2020000688007F0
:100DB00000280CD5FFE7FFF721FC0399401A032810
:100DC00004D3FFE703208DF81700EEE1EAE7FFE721
:100DD000FFE7FFE7049800780007002849D5FFE700
:100DE00004988069002823D0FFE740F28040C4F2D5
:100DF000422001210160FFF701FC0390FFE741F26F
:100E00002400C4F202000068800700280CD4FFE729
:100E1000FFF7F4FB0399401A032804D3FFE70320EC
:100E20008DF81700C1E1EAE7012000F05BFB1FE04D
:100E300040F28040C4F2422000210160FFF7DEFB57
:100E40000390FFE741F22400C4F20200006880072B
:100E500000280CD5FFE7FFF7D1FB0399401A0328C0
:100E600004D3FFE703208DF817009EE1EAE7FFE7D0
:100E7000FFE7049800784007002840F1DA80FFE798
:100E800000208DF8070041F21C00C4F20200006847
:100E9000C000002813D4FFE7FFE741F21C00C4F2B2
:100EA0000200016841F080510160006800F080504C
:100EB00000900098FFE701208DF80700FFE747F258
:100EC0000000C4F200000068C005002822D4FFE73B
:100ED00047F20000C4F20000016841F48071016033
:100EE000FFF78CFB0390FFE747F20000C4F200001D
:100EF0000068C00500280CD4FFE7FFF77FFB0399CB
:100F0000401A652804D3FFE703208DF817004CE151
:100F1000EAE7FFE7FFE70498C068012809D1FFE787
:100F200041F22000C4F20200016841F001010160B9
:100F300032E00498C06800280DD1FFE741F220009C
:100F4000C4F20200016821F001010160016821F092
:100F5000040101601FE00498C06805280DD1FFE777
:100F600041F22000C4F20200016841F00401016076
:100F7000016841F0010101600CE041F22000C4F27F
:100F80000200016821F001010160016821F0040103
:100F90000160FFE7FFE7FFE7FFE70498C06800286C
:100FA0001CD0FFE7FFF72AFB0390FFE741F2200088
:100FB000C4F202000068800700280ED4FFE7FFF7A4
:100FC0001DFB0399401A41F28931884204D3FFE79F
:100FD00003208DF81700E8E0E8E71BE0FFF70EFBC1
:100FE0000390FFE741F22000C4F20200006880078E
:100FF00000280ED5FFE7FFF701FB0399401A41F2E5
:101000008931884204D3FFE703208DF81700CCE034
:10101000E8E7FFE79DF80700012809D1FFE741F263
:101020001C00C4F20200016821F080510160FFE75A
:10103000FFE70498C069002800F0B380FFE741F2A1
:101040000400C4F20200006800F00C00082800F060
:101050008280FFE70498C06902285CD1FFE7602026
:10106000C4F2422000210160FFF7C8FA0390FFE7B5
:1010700041F20000C4F202000068800100280CD593
:10108000FFE7FFF7BBFA0399401A032804D3FFE7F1
:1010900003208DF8170088E0EAE70498006AB0F5AD
:1010A000803F0CD1FFE741F20400C4F20200016866
:1010B00021F40031049A926811430160FFE741F284
:1010C0000400C4F20200016821F47411049A136A46
:1010D000526A1A43114301606020C4F24220012188
:1010E0000160FFF78BFA0390FFE741F20000C4F2C2
:1010F00002000068800100280CD4FFE7FFF77EFAA9
:101100000399401A032804D3FFE703208DF8170042
:101110004BE0EAE71EE06020C4F2422000210160BB
:10112000FFF76CFA0390FFE741F20000C4F20200FF
:101130000068800100280CD5FFE7FFF75FFA0399EC
:10114000401A032804D3FFE703208DF817002CE092
:10115000EAE7FFE724E00498C069012804D1FFE72B
:1011600001208DF8170020E041F20400C4F20200D3
:1011700000680290029800F480300499096A88425D
:1011800008D1FFE7029800F470100499496A884278
:1011900004D0FFE701208DF8170006E0FFE7FFE726
:1011A000FFE700208DF81700FFE79DF8170006B055
:1011B00080BD000080B582B00190019800F00EFA69
:1011C00002B080BD80B582B000900098002804D1A4
:1011D000FFE701208DF8070040E0009880690028B3
:1011E00001D0FFE700E0FFE7009890F83900002801
:1011F00008D1FFE70098002180F83810009800F02F
:1012000031F8FFE70098242180F839100098006831
:10121000C16821F40051C160009800F09BFA009869
:101220000068016921F490410161009800684169FA
:1012300021F02A01416100980068C16841F4005121
:10124000C16000980021C1630098202280F83920F5
:10125000009880F83A208DF80710FFE79DF8070006
:1012600002B080BD80B58AB0099000200890079038
:10127000069005900998006844F20041C4F200010C
:10128000884237D1FFE7FFE741F21C00C4F20200B9
:10129000016841F400310160006800F400300490FE
:1012A0000498FFE7FFE741F21800C4F2020001686A
:1012B00041F004010160006800F00400039003980D
:1012C000FFE704200590022006900320089040F6D6
:1012D0000000C4F2010005A902900191FEF7ACFFE5
:1012E0000820059000200690079002980199FEF7CB
:1012F000A3FFFFE70AB080BDFFE7FEE780B592B02D
:101300000020119010900F900E90FFE741F218000E
:10131000C4F20200016841F010010160006800F0B1
:1013200010000D900D98FFE7FFE741F21800C4F29E
:101330000200016841F020010160006800F0200017
:101340000C900C98FFE7FFE741F21800C4F202008E
:10135000016841F004010160006800F004000B9096
:101360000B98FFE7FFE741F21800C4F202000168A2
:1013700041F008010160006800F008000A900A9836
:10138000FFE741F20000C4F201004FF400510022D7
:10139000099008910792FFF717F940F60000C4F290
:1013A0000100012106900591079AFFF70DF940F61B
:1013B0000040C4F201004FF4407104900391079A79
:1013C000FFF702F908980E9005990F91079A10926D
:1013D000022311930DF1380C099861460293CDF860
:1013E00004C0FEF729FF4FF440400E9007980F907D
:1013F000109009980199FEF71FFF05980E900F9025
:1014000007991091029A119206980199FEF714FF1C
:1014100003980E9005990F91079A1092029B1193D1
:1014200004980199FEF708FF12B080BD80B540F224
:101430009400C2F2000044F20041C4F200010160D5
:101440004FF4E131416000218160C16001610C22F3
:1014500042618161C161FFF7B5FE002803D0FFE75B
:10146000FEF7C6FEFFE780BDFFE7FEE7704700001E
:1014700088B0079006910592079800F00700049045
:101480000498C0F10700052803D3FFE7042001906A
:1014900004E00498C0F107000190FFE70198039071
:1014A00004980430062803D8FFE70020009003E0EA
:1014B000049803380090FFE700980290069803997B
:1014C000012202FA01F10139084002998840059B86
:1014D00002FA01F101391940084308B070470000D1
:1014E0007047000082B00190019840F20001C2F202
:1014F00000010968C90844F6D352C1F26202A1FB97
:101500000212920950430090FFE700BFFFE70098E6
:10151000411E00910028F8D1FFE702B0704700009B
:1015200080B584B04FF4807000900020019040F6A8
:101530000040C4F201006946FEF77EFE04B080BDA3
:1015400080B588B04FF4807004900121059100218E
:1015500006910222079240F60042C4F2010204AB57
:1015600003901046029119460192FEF765FE01981C
:101570000399029AFFF728F808B080BD80B584B0BF
:101580004FF4007000900020019040F60040C4F23B
:1015900001006946FEF750FE04B080BD80B588B0FA
:1015A0004FF4007004900121059100210691022260
:1015B000079240F60042C4F2010204AB03901046C9
:1015C000029119460192FEF737FE01980399029A9B
:1015D000FEF7FAFF08B080BD7047000080B582B00A
:1015E000009000980138B0F1807F03D3FFE701201D
:1015F000019019E0009801384EF21401CEF200017A
:1016000008604FF0FF300F2100F04EF94EF2180045
:10161000CEF20000002101604EF21000CEF2000078
:10162000072202600191FFE7019802B080BD00002F
:1016300080B540F29000C2F200000068002808D097
:10164000FFE740F29000C2F200000168013901603A
:101650000EE040F29000C2F200006421016041F20D
:101660000000C4F201004FF40051FEF795FFFFE7C0
:10167000FEF7CAFF80BD000080B592B008A82821FF
:101680000290FEF756FD002007900690059004900A
:101690000390012108914FF4A02209920A900C9125
:1016A00002200F904FF4803010904FF4E010119012
:1016B0000298FFF739FA002803D0FFE7FEF798FDFC
:1016C000FFE70F20039002200490002105914FF4C2
:1016D00080620692079103A9019008460199FFF7DD
:1016E00059F8002803D0FFE7FEF782FDFFE712B0AC
:1016F00080BD000041F20000C4F20200016841F028
:101700000101016041F20401C4F202010A680023F0
:10171000CFF6FF031A400A6002684FF6FF73CFF658
:10172000F6631A400260026822F4802202600868B0
:1017300020F4FE00086041F20800C4F202004FF4F9
:101740001F0101604EF60850CEF200004FF000611C
:101750000160704780B584B0039003980068006909
:1017600020F4405003990A68C9680843106103983F
:101770008168026940691143084302900398006838
:10178000C06841F20C6188430299084303990968D3
:10179000C86003980068406920F4407003990A68A3
:1017A0008969084350610398006843F60001C4F258
:1017B0000101884229D1FFE7FFF730F90190019834
:1017C0001921484303990A6849688900B0FBF1F080
:1017D00048F21F51C5F2EB11A0FB013C4FEA5C1C23
:1017E0004FF0640E0CFB1E004FF0320E0EEB00109B
:1017F000A0FB01014FF0F00E0EEA511E0EEB0C1C87
:10180000C1F343116144916028E0FFF7F5F80190BE
:1018100001981921484303990A6849688900B0FB77
:10182000F1F048F21F51C5F2EB11A0FB013C4FEA69
:101830005C1C4FF0640E0CFB1E004FF0320E0EEBE2
:101840000010A0FB01014FF0F00E0EEA511E0EEB4E
:101850000C1CC1F3431161449160FFE704B080BDEB
:10186000FFE7FEE781B001468DF803009DF9030014
:1018700000280FD4FFE79DF9030000F01F010122AB
:1018800002FA01F140094EF20012CEF2000242F8D3
:101890002010FFE701B070474EF60C50CEF200006A
:1018A0000068C0F30220704782B002468DF807003E
:1018B00000919DF9070000280AD4FFE70098000175
:1018C0009DF907104EF20042CEF2000288540BE060
:1018D000009800019DF8071001F00F014EF6145218
:1018E000CEF200028854FFE702B0704783B0029046
:1018F000029800F0070000904EF60C50CEF2000067
:101900000168019101994FF6FF021140019101997F
:10191000009A41EA02210022C0F2FA5211430191D9
:101920000199016003B0704780B582B0FFF736FEC1
:1019300001200190FEF71EFCFFF702FE0198FEF762
:1019400019FC02B080BD000080B584B0FFF7F8FD3F
:1019500001200290FEF70EFCFFF720FE0298FEF732
:1019600009FCFFF7DDFD0298FEF704FCFFF706FE19
:101970000298FEF7FFFB40F2D400C2F20000002103
:10198000017040F60040C4F201004FF480710190F4
:10199000FEF7EAFDADF80E004FF400710198FEF776
:1019A000E3FDADF80C00BDF80E00002808D1FFE7FC
:1019B00040F2D400C2F20000017801310170FFE76B
:1019C000BDF80C00002808D1FFE740F2D400C2F2B5
:1019D0000000017801310170FFE72820FEF7CAFB03
:1019E00004B080BD80B588B0002007900590FEF758
:1019F00019FE0490FFF740FEFFF780FCFFF716FD8D
:101A00001F2003900599059AFEF79CFE0398FEF7A8
:101A10008DFE202002900599059AFEF793FE02980C
:101A2000FEF784FEFFE700200690FFE706987E2879
:101A300022DCFFE7FFF778FF1420FEF7BDFB9DF8DF
:101A4000180000F01BF8069940F21002C2F20002E2
:101A500050540192FFF778FF06980199085C01281D
:101A600002D1FFE700BFFFE79620FEF7C3FBFFE7C9
:101A7000069801300690D9E7D5E7000080B584B01C
:101A800001468DF80F0001208DF80D0000208DF823
:101A90000E00FFE79DF80E00072823DCFFE79DF806
:101AA0000F000006002803D5FFE7FFF767FD02E0FF
:101AB000FFF774FDFFE701200190FEF77DFBFFF7C4
:101AC0002FFD0198FEF778FBFFF73AFD9DF80F0018
:101AD00040008DF80F00FFE79DF80E0001308DF8F3
:101AE0000E00D7E7FFF74AFD01200090FEF764FBE8
:101AF000FFF716FD0098FEF75FFB40F60040C4F2CA
:101B000001004FF40071FEF72FFDADF80A00BDF89B
:101B10000A00002804D1FFE701208DF80D0003E042
:101B200000208DF80D00FFE7FFF70AFD9DF80D007E
:101B300004B080BD02E008C8121F08C1002AFAD113
:101B400070477047002001E001C1121F002AFBD13D
:101B500070470000000000000000010203040607B7
:101B6000080900000000010203040000901B0008A7
:101B70000000002010000000341B0008A01B00081B
:101B800010000020D0040000441B000800000000EA
:101B90000024F4000100000010000000000000001C
:04000005080000ED02
:00000001FF
